:100000000C9446000C9465000C9465000C946500FB
:100010000C9465000C9465000C9465000C946500CC
:100020000C9465000C9465000C9465000C946500BC
:100030000C9465000C94DE000C9465000C94650033
:100040000C9465000C9465000C9465000C9465009C
:100050000C9465000C9465000C9465000C9465008C
:100060000C9465000C9465000C9465000C9465007C
:100070000C9465000C9465000C9465000C9465006C
:100080000C9465000C9465000C94650011241FBE4F
:10009000CFEFD0E4DEBFCDBF11E0A0E0B1E0EEE5F0
:1000A000F8E000E00BBF02C007900D92A431B10749
:1000B000D9F721E0A4E1B1E001C01D92A732B20757
:1000C000E1F70E9464030C942D040C940000CF937C
:1000D000DF9300D01F92CDB7DEB789837B836A831D
:1000E00089818A3031F48A819B81BC018DE00E9434
:1000F000670080EC90E0FC018081882F90E08072A6
:100100009927892BB1F386EC90E02981FC012083AB
:1001100080E090E00F900F900F90DF91CF910895C5
:10012000CF93DF93CDB7DEB781E890E02BE0FC0101
:10013000208388E890E02DE730E0FC0131832083C4
:100140008FE690E022E0FC01208384E890E0FC014F
:100150001182108280910E0190910F01A0911001E7
:10016000B09111018093150190931601A09317018E
:10017000B09318018FE590E02FE530E0F901208180
:100180002068FC0120830000DF91CF910895CF9378
:10019000DF93CDB7DEB781E890E0FC01108200006C
:1001A000DF91CF910895CF93DF93CDB7DEB781E094
:1001B000809314010000DF91CF9108951F920F9258
:1001C00000905F000F92112400905B000F922F931C
:1001D0003F934F935F936F937F938F939F93AF93CF
:1001E000BF93EF93FF93CF93DF93CDB7DEB78091AB
:1001F000150190911601A0911701B0911801019776
:10020000A109B1098093150190931601A0931701DC
:10021000B09318018091150190911601A0911701DA
:10022000B0911801892B8A2B8B2B91F40E94D3005B
:1002300080910E0190910F01A0911001B0911101D8
:100240008093150190931601A0931701B0931801A4
:100250000000DF91CF91FF91EF91BF91AF919F91FE
:100260008F917F916F915F914F913F912F910F905F
:1002700000925B000F9000925F000F901F90189506
:10028000CF93DF9300D000D0CDB7DEB769837A83F8
:100290008B839C8389819A81AB81BC8180930E0181
:1002A00090930F01A0931001B093110180910E0162
:1002B00090910F01A0911001B0911101809315014F
:1002C00090931601A0931701B093180100000F90AE
:1002D0000F900F900F90DF91CF910895CF93DF9300
:1002E000CDB7DEB780912301909124018130910533
:1002F00081F08130910530F08230910589F00397CB
:10030000B1F01CC081E090E0909324018093230120
:1003100015C082E090E090932401809323010EC0E9
:1003200083E090E0909324018093230107C081E053
:1003300090E0909324018093230100008091230199
:10034000909124018130910531F08130910568F060
:10035000049758F404C081E08093190107C080918C
:100360001901880F8093190101C000000000DF917E
:10037000CF910895CF93DF93CDB7DEB78091210160
:10038000909122018130910579F08130910518F02A
:10039000029789F017C010921A0181E090E09093C3
:1003A0002201809321010EC082E090E0909322010F
:1003B0008093210107C081E090E090932201809317
:1003C000210100008091210190912201813091054D
:1003D00019F0029721F007C010921A0104C088E0BA
:1003E00080931A0100000000DF91CF910895CF9310
:1003F000DF93CDB7DEB780911F019091200181304E
:10040000910579F08130910518F0029709F12AC021
:1004100010921C0181E090E09093200180931F01D5
:1004200021C010921C0180911B01843051F480E1A5
:1004300080931C0182E090E09093200180931F0143
:1004400011C081E090E09093200180931F010AC0C9
:1004500080E180931C0181E090E0909320018093E3
:100460001F01000080911F019091200181309105B2
:1004700049F08130910518F0029739F00AC01092C6
:100480001C0107C010921C0104C080E180931C0174
:1004900000000000DF91CF910895CF93DF93CDB797
:1004A000DEB780912501909126018130910509F4F4
:1004B0005AC08130910538F08230910509F490C01E
:1004C000039759F0CAC081E08093120183E090E065
:1004D0009093260180932501C0C080911B01882F35
:1004E00090E083709927892B39F483E090E0909312
:1004F000260180932501B1C080911B01882F90E0D7
:1005000083709927019781F480911201893128F431
:10051000809112018F5F8093120181E090E09093AF
:1005200026018093250199C080911B01882F90E0BE
:1005300083709927029781F480911201823028F00C
:100540008091120181508093120182E090E090939B
:1005500026018093250181C083E090E090932601DD
:10056000809325017AC080911B01882F90E08370D1
:100570009927892B39F483E090E0909326018093AA
:1005800025016BC080911B01882F90E08370992713
:10059000019739F481E090E0909326018093250142
:1005A0005CC080911B01882F90E08370992702978F
:1005B00081F480911201823028F0809112018150E3
:1005C0008093120182E090E09093260180932501B0
:1005D00044C083E090E090932601809325013DC0C4
:1005E00080911B01882F90E083709927892B39F423
:1005F00083E090E090932601809325012DC08091A7
:100600001B01882F90E083709927019781F48091D6
:100610001201893128F4809112018F5F80931201B9
:1006200081E090E0909326018093250115C0809190
:100630001B01882F90E083709927029739F482E09C
:1006400090E0909326018093250106C083E090E01E
:10065000909326018093250100000000DF91CF9147
:100660000895CF93DF93CDB7DEB780911D019091B0
:100670001E01009719F0019741F00EC081E090E053
:1006800090931E0180931D0107C081E090E090933C
:100690001E0180931D01000080911D0190911E019B
:1006A000019709F00CC085E290E030911A01209189
:1006B0001901322B20911C01232BFC012083000007
:1006C0000000DF91CF910895CF93DF93CDB7DEB7D0
:1006D0002F970FB6F894DEBF0FBECDBF84E290E037
:1006E0002FEFFC01208385E290E0FC01108281E283
:1006F00090E02FEFFC01208382E290E02FEFFC01DD
:1007000020838CE291E0A0E0B0E089839A83AB8300
:10071000BC8388EE93E0A0E0B0E08D839E83AF833E
:10072000B88781E0898781E08A8781E090E0A0E056
:10073000B0E08C879D87AE87BF871B86109224010F
:1007400010922301109222011092210110921E0199
:1007500010921D011092200110921F01109226018B
:10076000109225018C859D85AE85BF85BC01CD018C
:100770000E9440010E94900080E290E0FC01808194
:10078000809580931B018A85843628F00E944D0253
:100790001A8681E08B87809112019985981728F03D
:1007A0000E94F701198681E08B878D819E81AF8140
:1007B000B8858C329140A105B10540F00E946E01D0
:1007C0001D821E821F82188681E08B8789819A8113
:1007D000AB81BC81883E9340A105B10540F00E94E9
:1007E000BA0119821A821B821C8281E08B878B8559
:1007F000882311F00E9431031B86000080911401B0
:100800008823E1F31092140129813A814B815C81A4
:100810008C859D85AE85BF85820F931FA41FB51F54
:1008200089839A83AB83BC832D813E814F81588518
:100830008C859D85AE85BF85820F931FA41FB51F34
:100840008D839E83AF83B8878C859985890F89872F
:0E0850008C859A85890F8A878FCFF894FFCF09
:10085E000000000200000000670000000000010020
:04086E000000010085
:00000001FF
